:100000000C942A000C943F000C943F000C943F0089
:100010000C943F000C943F000C943F000C943F0064
:100020000C943F000C943F000C943F000C943F0054
:100030000C943F000C943F000C943F000C943F0044
:100040000C943F000C943F000C943F000C943F0034
:100050000C943F0011241FBECFE5D8E0DEBFCDBF1A
:1000600010E0A0E6B0E0ECE7FDE002C005900D92E4
:10007000AC38B107D9F70E94D3000C94BC060C949D
:10008000000090E895BB82BB83EC99E00197F1F703
:1000900000C0000015BA089590EA95BB82BB83ECBE
:1000A00099E00197F1F700C0000080E285BB089558
:1000B0008FEF84BB81BB88E30E9441008EE00E94E9
:1000C000410086E00E94410081E00E94410080E8FA
:1000D0000E944100089581E00E9441000895CF935D
:1000E000DF93EA01813011F480E801C080EC862BB7
:1000F0000E9441008881882331F021960E944C00A3
:1001000089918823D9F7DF91CF91089586B18760CF
:1001100086B93E9A379A369A089597B1907F97B9E3
:1001200097B1892B87B9369A349BFECF24B135B16C
:10013000822F932F08950E948D00BC0180E090E0F3
:100140000E94EA0220E030E048EC52E40E9478038A
:1001500020E030EC4FE754E40E9456029B01AC01D2
:1001600060E070E088EC92E40E94F1010E94BE021F
:10017000862F972F08950E948D00BC0180E090E0AB
:100180000E94EA0226EF38E24CE950E40E9478032C
:1001900020E030E040E251E40E9456020E94BE029C
:1001A000862F972F0895CF92DF92EF92FF920F93B1
:1001B0001F93DF93CF93CDB7DEB72A970FB6F8948E
:1001C000DEBF0FBECDBF80EF87BB0E94580081E02D
:1001D00060E040E650E00E946F000E9486008E01C1
:1001E0000F5F1F4F0F2EFFE6EF2EF0E0FF2EF02DDA
:1001F0000F2EFCE7CF2EF0E0DF2EF02DB09B86C057
:10020000B19B08C0C59A8FE493EC0197F1F700C049
:100210000000C598B39B08C0C69AAFE4B3EC119731
:10022000F1F700C00000C698B29B4CC00E946B0062
:1002300081E00E949B0000D000D000D0EDB7FEB757
:100240003196ADB7BEB712961C930E931197F382F9
:10025000E282958384830E94DB038DB79EB7069666
:100260000FB6F8949EBF0FBE8DBF81E060E0A8017D
:100270000E946F0080E00E94BB0000D000D000D040
:10028000EDB7FEB73196ADB7BEB712961C930E937D
:100290001197D382C282958384830E94DB038DB73A
:1002A0009EB706960FB6F8949EBF0FBE8DBF82E034
:1002B00060E0A8010E946F00A7EAB1E61197F1F78C
:1002C00000C0000081E00E949B008233910558F439
:1002D000C79A8FE39DE0A3E081509040A040E1F7F2
:1002E00000C00000C79880E00E94BB0089329105E1
:1002F00058F0C79A8FE39DE0A3E081509040A04062
:10030000E1F700C00000C7980E946B00B09976CF5B
:1003100081E00E949B008233910508F4C59A81E038
:100320000E949B008135910508F0C59880E00E94ED
:10033000BB008932910508F0C69A80E00E94BB009C
:100340008431910508F4C6980E946B0081E00E94F8
:100350009B0000D000D000D0EDB7FEB73196ADB70E
:10036000BEB712961C930E931197F382E282958387
:1003700084830E94DB038DB79EB706960FB6F89470
:100380009EBF0FBE8DBF81E060E0A8010E946F009C
:1003900080E00E94BB0000D000D000D0EDB7FEB7D7
:1003A0003196ADB7BEB712961C930E931197D382B8
:1003B000C282958384830E94DB038DB79EB7069625
:1003C0000FB6F8949EBF0FBE8DBF82E060E0A8011B
:1003D0000E946F00A3EDB0E31197F1F700C0000099
:1003E0000DCF5058BB27AA270ED048C139D130F0C5
:1003F0003ED120F031F49F3F11F41EF42EC10EF4D3
:10040000E095E7FB24C1E92F4AD180F3BA176207D0
:1004100073078407950718F071F49EF562C10EF416
:10042000E0950B2EBA2FA02D0B01B90190010C0104
:10043000CA01A0011124FF27591B99F0593F50F41C
:10044000503E68F11A16F040A22F232F342F442774
:10045000585FF3CF469537952795A795F04053956C
:10046000C9F77EF41F16BA0B620B730B840BBAF03C
:100470009150A1F0FF0FBB1F661F771F881FC2F7A7
:100480000EC0BA0F621F731F841F48F487957795BB
:100490006795B795F7959E3F08F0B3CF9395880F72
:1004A00008F09927EE0F9795879508950CD0E6C030
:1004B000DED040F0D5D030F021F45F3F19F0C7C056
:1004C000511110C1CAC0EBD098F39923C9F3552339
:1004D000B1F3951B550BBB27AA2762177307840737
:1004E00038F09F5F5F4F220F331F441FAA1FA9F3ED
:1004F00033D00E2E3AF0E0E830D091505040E695DF
:10050000001CCAF729D0FE2F27D0660F771F881F3F
:10051000BB1F261737074807AB07B0E809F0BB0B2E
:10052000802DBF01FF2793585F4F2AF09E3F510552
:1005300068F08DC0D7C05F3FECF3983EDCF3869542
:1005400077956795B795F7959F5FC9F7880F911DC8
:100550009695879597F90895E1E0660F771F881FB4
:10056000BB1F621773078407BA0720F0621B730B67
:10057000840BBA0BEE1F88F7E095089598D088F0A9
:100580009F5790F0B92F9927B751A0F0D1F0660F7F
:10059000771F881F991F1AF0BA95C9F712C0B1309A
:1005A00081F09FD0B1E008959CC0672F782F8827F5
:1005B000B85F39F0B93FCCF3869577956795B395D9
:1005C000D9F73EF490958095709561957F4F8F4F48
:1005D0009F4F0895E89409C097FB3EF4909580954D
:1005E000709561957F4F8F4F9F4F9923A9F0F92FF9
:1005F00096E9BB279395F695879577956795B79577
:10060000F111F8CFFAF4BB0F11F460FF1BC06F5F5C
:100610007F4F8F4F9F4F16C0882311F096E911C06E
:10062000772321F09EE8872F762F05C0662371F08F
:1006300096E8862F70E060E02AF09A95660F771FA3
:10064000881FDAF7880F9695879597F9089597F997
:100650009F6780E870E060E008959FEF80EC089568
:1006600000240A9416161706180609060895002491
:100670000A9412161306140605060895092E03940B
:10068000000C11F4882352F0BB0F40F4BF2B11F47F
:1006900060FF04C06F5F7F4F8F4F9F4F089557FDDE
:1006A0009058440F551F59F05F3F71F04795880FE0
:1006B00097FB991F61F09F3F79F087950895121677
:1006C00013061406551FF2CF4695F1DF08C0161623
:1006D00017061806991FF1CF8695710561050894D4
:1006E0000895E894BB2766277727CB0197F90895EB
:1006F0000BD0C4CFB5DF28F0BADF18F0952309F08E
:10070000A6CFABCF1124EECFCADFA0F3959FD1F3D4
:10071000950F50E0551F629FF001729FBB27F00DAF
:10072000B11D639FAA27F00DB11DAA1F649F662704
:10073000B00DA11D661F829F2227B00DA11D621F53
:10074000739FB00DA11D621F839FA00D611D221F0D
:10075000749F3327A00D611D231F849F600D211DF1
:10076000822F762F6A2F11249F5750408AF0E1F094
:1007700088234AF0EE0FFF1FBB1F661F771F881FDD
:1007800091505040A9F79E3F510570F060CFAACF1D
:100790005F3FECF3983EDCF3869577956795B795C8
:1007A000F795E7959F5FC1F7FE2B880F911D9695F2
:1007B000879597F90895AEE0B0E0E1EEF3E00C9490
:1007C00093060D891E8986E08C831A8309838FEF37
:1007D0009FE79E838D839E01275E3F4FCE0101964A
:1007E0006F89788DA9010E94FE03EF81F885E00FE3
:1007F000F11F10822E96E4E00C94AF06ACE0B0E05E
:10080000E4E0F4E00C9485066C011B018A01FC0114
:1008100017821682838181FFD1C12E010894411C69
:10082000511CF6019381F10193FD859193FF819114
:100830001F01882309F4BEC1853239F493FD8591E7
:1008400093FF81911F01853229F490E0B6010E9447
:10085000FB05E7CFEE24FF2420E02032B0F48B32FA
:1008600069F08C3228F4803251F0833271F40BC07D
:100870008D3239F0803349F421602CC0226024602D
:1008800029C0286027C0206125C027FD2CC0382F33
:1008900030533A3098F426FF08C08E2D880FE82E8A
:1008A000EE0CEE0CE80EE30E15C08F2D880FF82E1F
:1008B000FF0CFF0CF80EF30E20620CC08E3221F4F8
:1008C00026FD78C1206406C08C3611F4206802C071
:1008D000883649F4F10193FD859193FF81911F01C1
:1008E000882309F0BACF982F9554933018F090527E
:1008F000933028F40C5F1F4FFFE3F9830DC083365C
:1009000031F0833771F0833509F060C022C0F801FF
:10091000808189830E5F1F4F420171E0A72EB12CA9
:1009200016C062E0662E712C600E711EF801808088
:10093000918026FF03C06E2D70E002C06FEF7FEF45
:10094000C4012C870E94F0055C0183012C852F7760
:1009500017C052E0652E712C600E711EF801808068
:10096000918026FF03C06E2D70E002C06FEF7FEF15
:10097000C4012C870E94E5055C012C852068830159
:1009800023FD20C008C080E290E0B6012C870E94C1
:10099000FB05FA942C858F2D90E0A816B90698F3E4
:1009A00011C0F40127FD859127FF81914F0190E04F
:1009B000B6012C870E94FB052C85F110FA9408944F
:1009C000A108B108A114B10461F7F1C0843611F097
:1009D000893649F527FF08C0F8016081718182815D
:1009E00093810C5F1F4F09C0F801608171818827D6
:1009F00077FD8095982F0E5F1F4F4FE6B42EB222E1
:100A000097FF09C090958095709561957F4F8F4FA6
:100A10009F4FF0E8BF2AA2012AE030E00E9427069B
:100A2000782E741845C0853731F43FEEB32EB222CC
:100A30002AE030E025C099EFB92EB2228F36C1F0FE
:100A4000803720F4883509F0B5C00DC0803721F01B
:100A5000883709F0AFC002C020E1B22AB4FE0BC053
:100A600084E0B82A08C0B4FE09C0E6E0BE2A06C089
:100A700028E030E005C020E130E002C020E132E0B3
:100A8000B7FE08C0F80160817181828193810C5F9B
:100A90001F4F07C0F8016081718180E090E00E5F18
:100AA0001F4FA2010E942706782E7418FFE7BF226D
:100AB000B6FE0BC02EEFB2227E1438F4B4FE07C08F
:100AC000B2FC05C08FEEB82202C0A72C01C0AE2C2C
:100AD0008B2D90E0B4FE0DC0FE01E70DF11D2081CD
:100AE000203319F4E9EEBE2209C0A394B2FE06C079
:100AF00004C086789070009709F0A3948B2C9924F9
:100B0000B3FC14C0B0FE0FC0AF1428F4E72CEF0CF8
:100B1000EA18AF2C08C0E72C06C080E290E0B601CE
:100B20000E94FB05A394AF14C0F304C0AF1410F4EB
:100B3000FA1801C0FF2484FE0FC080E390E0B601E4
:100B40000E94FB0582FE1FC081FE03C088E590E085
:100B500010C088E790E00DC0C401867890700097BF
:100B600091F081FC02C080E201C08BE2B7FC8DE213
:100B700090E0B6010E94FB0506C080E390E0B6015C
:100B80000E94FB05EA947E14C0F37A94F201E70D0B
:100B9000F11D808190E0B6010E94FB057720A9F746
:100BA00006C080E290E0B6010E94FB05FA94FF20A7
:100BB000C1F737CEF6012681378102C02FEF3FEF14
:100BC000C9012C96E2E10C94A106FC01059061504C
:100BD00070400110D8F7809590958E0F9F1F089553
:100BE000FC016150704001900110D8F780959095FC
:100BF0008E0F9F1F08950F931F93CF93DF938C0148
:100C0000EB018B8181FF1BC082FF0DC02E813F81D4
:100C10008C819D812817390764F4E881F98101935B
:100C2000F983E88306C0E885F985802F0995009748
:100C300031F48E819F8101969F838E8302C00FEFD6
:100C40001FEFC801DF91CF911F910F910895FA0115
:100C5000AA27283051F1203181F1E8946F936E7FFB
:100C60006E5F7F4F8F4F9F4FAF4FB1E03ED0B4E0EC
:100C70003CD0670F781F891F9A1FA11D680F791F2D
:100C80008A1F911DA11D6A0F711D811D911DA11D3E
:100C900020D009F468943F912AE0269F112430194E
:100CA000305D3193DEF6CF010895462F4770405DE9
:100CB0004193B3E00FD0C9F7F6CF462F4F70405D98
:100CC0004A3318F0495D31FD4052419302D0A9F7F3
:100CD000EACFB4E0A6959795879577956795BA95ED
:100CE000C9F700976105710508959B01AC010A2EB3
:100CF00006945795479537952795BA95C9F7620F8A
:100D0000731F841F951FA01D08952F923F924F922D
:100D10005F926F927F928F929F92AF92BF92CF928B
:100D2000DF92EF92FF920F931F93CF93DF93CDB794
:100D3000DEB7CA1BDB0B0FB6F894DEBF0FBECDBF0C
:100D400009942A88398848885F846E847D848C84DD
:100D50009B84AA84B984C884DF80EE80FD800C81E6
:100D60001B81AA81B981CE0FD11D0FB6F894DEBFC9
:0C0D70000FBECDBFED010895F894FFCF39
:100D7C00494E495449414C495A494E472E2E004D33
:100D8C004F4953545552453A2025640054454D5013
:0C0D9C00455241545552453A2025640050
:00000001FF
